:020000040800F2
:10000000000002203D620008116100081361000831
:100010001561000817610008196100080000000060
:100020000000000000000000000000001B6100084C
:100030001D610008000000001F6100082161000828
:100040008D6200088D6200088D6200088D620008D4
:100050008D6200088D6200088D6200088D620008C4
:100060008D6200088D6200088D6200088D620008B4
:100070008D6200088D6200088D6200088D620008A4
:100080008D6200088D6200088D620008000000008B
:100090000000000000000000000000008D62000869
:1000A0008D6200088D6200088D6200088D62000874
:1000B0008D6200088D6200088D6200088D62000864
:1000C0008D6200088D6200088D6200088D62000854
:1000D0008D6200088D6200088D620008000000003B
:1000E0008D6200088D6200088D620008000000002B
:1000F0000000000000000000000000008D62000809
:10010000000000008D6200088D6200088D6200080A
:1001100000000000000000000000000000000000DF
:100120008D6200088D6200088D6200088D620008F3
:100130008D620008000000000000000000000000C8
:100140000000000000000000000000002D61000819
:100150008D6200088D6200088D6200088D620008C3
:100160008D6200088D6200080000000000000000A1
:10017000000000000000000000000000000000007F
:10018000000000008D620008000000000000000078
:080190008D6200088D62000879
:1001C00010B5054C237833B9044B13B10448AFF391
:1001D00000800123237010BD440A002000000000AD
:1001E00038C4000808B5034B1BB103490348AFF3FB
:1001F000008008BD00000000480A002038C4000844
:1002000081F0004102E000BF83F0004330B54FEAC7
:1002100041044FEA430594EA050F08BF90EA020F34
:100220001FBF54EA000C55EA020C7FEA645C7FEAC7
:10023000655C00F0E2804FEA5454D4EB5555B8BFEA
:100240006D420CDD2C4480EA020281EA030382EA5B
:10025000000083EA010180EA020281EA0303362DED
:1002600088BF30BD11F0004F4FEA01314FF4801CC0
:100270004CEA113102D0404261EB410113F0004FD2
:100280004FEA03334CEA133302D0524263EB430389
:1002900094EA050F00F0A780A4F10104D5F1200E27
:1002A0000DDB02FA0EFC22FA05F2801841F1000182
:1002B00003FA0EF2801843FA05F359410EE0A5F156
:1002C00020050EF1200E012A03FA0EFC28BF4CF087
:1002D000020C43FA05F3C01851EBE37101F000453D
:1002E00007D54FF0000EDCF1000C7EEB00006EEB4A
:1002F0000101B1F5801F1BD3B1F5001F0CD34908D4
:100300005FEA30004FEA3C0C04F101044FEA44522A
:1003100012F5800F80F09A80BCF1004F08BF5FEAB1
:10032000500C50F1000041EB045141EA050130BD91
:100330005FEA4C0C404141EB010111F4801FA4F134
:100340000104E9D191F0000F04BF01460020B1FA89
:1003500081F308BF2033A3F10B03B3F120020CDAC1
:100360000C3208DD02F1140CC2F10C0201FA0CF09F
:1003700021FA02F10CE002F11402D8BFC2F1200C04
:1003800001FA02F120FA0CFCDCBF41EA0C019040BA
:10039000E41AA2BF01EB0451294330BD6FEA040403
:1003A0001F3C1CDA0C340EDC04F11404C4F12002EE
:1003B00020FA04F001FA02F340EA030021FA04F300
:1003C00045EA030130BDC4F10C04C4F1200220FA57
:1003D00002F001FA04F340EA0300294630BD21FA95
:1003E00004F0294630BD94F0000F83F4801306BF5B
:1003F00081F480110134013D4EE77FEA645C18BF4F
:100400007FEA655C29D094EA050F08BF90EA020FE5
:1004100005D054EA000C04BF1946104630BD91EADD
:10042000030F1EBF0021002030BD5FEA545C05D1E0
:100430004000494128BF41F0004130BD14F580041F
:100440003CBF01F5801130BD01F0004545F0FE4193
:1004500041F470014FF0000030BD7FEA645C1ABFC8
:10046000194610467FEA655C1CBF0B46024650EAFF
:10047000013406BF52EA033591EA030F41F400212B
:1004800030BD00BF90F0000F04BF0021704730B5B1
:100490004FF4806404F132044FF000054FF0000186
:1004A00050E700BF90F0000F04BF0021704730B547
:1004B0004FF4806404F1320410F0004548BF40421C
:1004C0004FF000013EE700BF42004FEAE2014FEA71
:1004D00031014FEA02701FBF12F07F4393F07F4F4C
:1004E00081F06051704732F07F4208BF704793F04F
:1004F0007F4F04BF41F40021704730B54FF4607462
:1005000001F0004521F000411CE700BF50EA010264
:1005100008BF704730B54FF000050AE050EA01020D
:1005200008BF704730B511F0004502D5404261EB7D
:1005300041014FF4806404F132045FEA915C3FF4BE
:10054000D8AE4FF003025FEADC0C18BF03325FEA5B
:10055000DC0C18BF033202EBDC02C2F1200300FA0C
:1005600003FC20FA02F001FA03FE40EA0E0021FA31
:1005700002F11444BDE600BF70B54FF0FF0C4CF41F
:10058000E06C1CEA11541DBF1CEA135594EA0C0FD1
:1005900095EA0C0F00F0DEF82C4481EA030621EA0C
:1005A0004C5123EA4C5350EA013518BF52EA033547
:1005B00041F4801143F4801338D0A0FB02CE4FF0F9
:1005C0000005E1FB02E506F00042E0FB03E54FF029
:1005D0000006E1FB03569CF0000F18BF4EF0010E21
:1005E000A4F1FF04B6F5007F64F5407404D25FEA1D
:1005F0004E0E6D4146EB060642EAC62141EA5551D0
:100600004FEAC52040EA5E504FEACE2EB4F1FD0C11
:1006100088BFBCF5E06F1ED8BEF1004F08BF5FEA8F
:10062000500E50F1000041EB045170BD06F0004641
:1006300046EA010140EA020081EA0301B4EB5C04EE
:10064000C2BFD4EB0C0541EA045170BD41F48011E6
:100650004FF0000E013C00F3AB8014F1360FDEBF0B
:10066000002001F0004170BDC4F10004203C35DAE7
:100670000C341BDC04F11404C4F1200500FA05F36A
:1006800020FA04F001FA05F240EA020001F000420B
:1006900021F0004110EBD37021FA04F642EB060181
:1006A0005EEA430E08BF20EAD37070BDC4F10C04AB
:1006B000C4F1200500FA04F320FA05F001FA04F26F
:1006C00040EA020001F0004110EBD37041F100015B
:1006D0005EEA430E08BF20EAD37070BDC4F1200566
:1006E00000FA05F24EEA020E20FA04F301FA05F2CE
:1006F00043EA020321FA04F001F0004121FA04F276
:1007000020EA020000EBD3705EEA430E08BF20EA45
:10071000D37070BD94F0000F0FD101F0004640007F
:1007200041EB010111F4801F08BF013CF7D041EA01
:10073000060195F0000F18BF704703F00046520005
:1007400043EB030313F4801F08BF013DF7D043EAD6
:100750000603704794EA0C0F0CEA135518BF95EA8C
:100760000C0F0CD050EA410618BF52EA4306D1D113
:1007700081EA030101F000414FF0000070BD50EA32
:10078000410606BF1046194652EA430619D094EABC
:100790000C0F02D150EA013613D195EA0C0F05D1A6
:1007A00052EA03361CBF104619460AD181EA0301FA
:1007B00001F0004141F0FE4141F470014FF00000B2
:1007C00070BD41F0FE4141F4780170BD70B54FF04D
:1007D000FF0C4CF4E06C1CEA11541DBF1CEA1355CD
:1007E00094EA0C0F95EA0C0F00F0A7F8A4EB0504AF
:1007F00081EA030E52EA03354FEA013100F08880A6
:100800004FEA03334FF0805545EA131343EA12636E
:100810004FEA022245EA111545EA10654FEA002623
:100820000EF000419D4208BF964244F1FD0404F5DC
:10083000407402D25B084FEA3202B61A65EB030538
:100840005B084FEA32024FF480104FF4002CB6EBF5
:10085000020E75EB030E22BFB61A754640EA0C0075
:100860005B084FEA3202B6EB020E75EB030E22BFB5
:10087000B61A754640EA5C005B084FEA3202B6EBF6
:10088000020E75EB030E22BFB61A754640EA9C00B5
:100890005B084FEA3202B6EB020E75EB030E22BF85
:1008A000B61A754640EADC0055EA060E18D04FEA43
:1008B000051545EA16754FEA06164FEAC30343EAE3
:1008C00052734FEAC2025FEA1C1CC0D111F4801FB0
:1008D0000BD141EA00014FF000004FF0004CB6E7A9
:1008E00011F4801F04BF01430020B4F1FD0C88BF48
:1008F000BCF5E06F3FF6AFAEB5EB030C04BFB6EB53
:10090000020C5FEA500C50F1000041EB045170BD45
:100910000EF0004E4EEA113114EB5C04C2BFD4EB72
:100920000C0541EA045170BD41F480114FF0000EF6
:10093000013C90E645EA060E8DE60CEA135594EA72
:100940000C0F08BF95EA0C0F3FF43BAF94EA0C0F75
:100950000AD150EA01347FF434AF95EA0C0F7FF4EA
:1009600025AF104619462CE795EA0C0F06D152EA3E
:1009700003353FF4FDAE1046194622E750EA410622
:1009800018BF52EA43067FF4C5AE50EA41047FF433
:100990000DAF52EA43057FF4EBAE12E74FF0FF3C98
:1009A00006E000BF4FF0010C02E000BF4FF0010C69
:1009B0004DF804CD4FEA410C7FEA6C5C4FEA430CE2
:1009C00018BF7FEA6C5C1BD001B050EA410C0CBF31
:1009D00052EA430C91EA030F02BF90EA020F002093
:1009E000704710F1000F91EA030F58BF994208BFFA
:1009F00090422CBFD8176FEAE37040F001007047B7
:100A00004FEA410C7FEA6C5C02D150EA013C07D10D
:100A10004FEA430C7FEA6C5CD6D152EA033CD3D058
:100A20005DF8040B704700BF8446104662468C4652
:100A30001946634600E000BF01B5FFF7B7FF002885
:100A400048BF10F1000F01BD4DF808EDFFF7F4FFAE
:100A50000CBF012000205DF808FB00BF4DF808ED39
:100A6000FFF7EAFF34BF012000205DF808FB00BF5C
:100A70004DF808EDFFF7E0FF94BF012000205DF87E
:100A800008FB00BF4DF808EDFFF7CEFF94BF012033
:100A900000205DF808FB00BF4DF808EDFFF7C4FF2C
:100AA00034BF012000205DF808FB00BF4FEA410C75
:100AB0007FEA6C5C02D150EA013C0AD14FEA430C58
:100AC0007FEA6C5C02D152EA033C02D14FF0000095
:100AD00070474FF00100704753B94AB9002908BF69
:100AE00000281CBF4FF0FF314FF0FF3000F072B90B
:100AF000ADF1080C6DE904CE00F006F8DDF804E075
:100B0000DDE9022304B070472DE9F047089E044652
:100B10008846002B4BD18A42154667D9B2FA82F239
:100B20004AB1C2F1200701FA02F320FA07F7954013
:100B300047EA030894404FEA154E230CB8FBFEF732
:100B40001FFA85FC0EFB178843EA084307FB0CF1EC
:100B5000994209D9EB1807F1FF3080F01B819942C7
:100B600040F21881023F2B445B1AA4B2B3FBFEF0A3
:100B70000EFB103344EA034400FB0CFCA44509D9E6
:100B80002C1900F1FF3380F00781A44540F2048165
:100B900002382C4440EA0740A4EB0C0400271EB1A5
:100BA000D4400023C6E900433946BDE8F0878B42B4
:100BB00009D9002E00F0EB800027C6E90001384675
:100BC0003946BDE8F087B3FA83F7002F47D18B424F
:100BD00002D3824200F2FA80841A61EB03030120FF
:100BE0009846002EE0D0C6E90048DDE702B9FFDEF6
:100BF000B2FA82F2002A40F08F80491B4FEA154E6C
:100C00001FFA85F80127B1FBFEFC230C0EFB1C111B
:100C100043EA014308FB0CF1994207D9EB180CF1A8
:100C2000FF3002D2994200F2CD808446591AA3B215
:100C3000B1FBFEF00EFB101443EA044408FB00F87D
:100C4000A04507D92C1900F1FF3302D2A04500F2CC
:100C5000B6801846A4EB080440EA0C409FE7C7F1B1
:100C6000200CBB4022FA0CFE4EEA030E01FA07F4F8
:100C700020FA0CF521FA0CF34FEA1E482543B3FB8A
:100C8000F8F92C0C08FB19331FFA8EFA44EA0343D7
:100C900009FB0AF49C4202FA07F200FA07F10BD9A9
:100CA0001EEB030309F1FF3080F087809C4240F285
:100CB0008480A9F1020973441B1BADB2B3FBF8F0A9
:100CC00008FB103345EA034400FB0AFAA24508D9A1
:100CD0001EEB040400F1FF336BD2A24569D9023840
:100CE000744440EA0940A0FB0289A4EB0A044C4585
:100CF000C2464B4654D351D0002E69D0B1EB0A0501
:100D000064EB030404FA0CFCFD40FC404CEA0505CE
:100D1000C6E90054002747E7C2F1200320FA03F791
:100D2000954001FA02F021FA03F34FEA154E3843D9
:100D3000010CB3FBFEF71FFA85F80EFB173341EAEF
:100D4000034107FB08F38B4204FA02F407D9691840
:100D500007F1FF3C2FD28B422DD9023F2944CB1AF9
:100D600081B2B3FBFEF00EFB103341EA034100FBFE
:100D700008F38B4207D9691800F1FF3C17D28B4268
:100D800015D902382944C91A40EA07473BE73746D4
:100D9000304609E70746E7E61846FBE64145ABD291
:100DA000B8EB020A69EB0E0201381346A4E760466D
:100DB000E9E7184695E76746D1E781467CE70238C0
:100DC0002C4447E7ACF1020C2B442FE7384608E7E8
:100DD0003746E9E6704700BF000000000000000051
:100DE00001F0FF01102A2BDB10F0070F08D010F8DC
:100DF000013B013A8B422DD010F0070F42B3F6D1E0
:100E0000F0B441EA012141EA014122F007047FF0F8
:100E100000070023F0E80256083C85EA010586EA4F
:100E2000010685FA47F5A3FA87F586FA47F6A5FA8B
:100E300087F68EB9EED1F0BC01F0FF0102F0070297
:100E400032B110F8013B013A83EA010313B1F8D142
:100E50000020704701387047002D06BF3546033823
:100E6000073815F0010F07D1013015F4807F02BF5C
:100E7000013015F4C03F0130F0BC0138704700BFAD
:100E8000844641EA000313F003036DD1403A41D395
:100E900051F8043B40F8043B51F8043B40F8043B54
:100EA00051F8043B40F8043B51F8043B40F8043B44
:100EB00051F8043B40F8043B51F8043B40F8043B34
:100EC00051F8043B40F8043B51F8043B40F8043B24
:100ED00051F8043B40F8043B51F8043B40F8043B14
:100EE00051F8043B40F8043B51F8043B40F8043B04
:100EF00051F8043B40F8043B51F8043B40F8043BF4
:100F000051F8043B40F8043B51F8043B40F8043BE3
:100F1000403ABDD2303211D351F8043B40F8043B83
:100F200051F8043B40F8043B51F8043B40F8043BC3
:100F300051F8043B40F8043B103AEDD20C3205D393
:100F400051F8043B40F8043B043AF9D2043208D08B
:100F5000D2071CBF11F8013B00F8013B01D30B88FD
:100F600003806046704700BF082A13D38B078DD0DB
:100F700010F003038AD0C3F10403D21ADB071CBFAD
:100F800011F8013B00F8013B80D331F8023B20F817
:100F9000023B7BE7043AD9D3013A11F8013B00F850
:100FA000013BF9D20B7803704B7843708B788370D8
:100FB00060467047000000000000000000000000D4
:100FC00090F800F06DE9024520F007016FF0000C89
:100FD00010F0070491F820F040F049804FF0000431
:100FE0006FF00700D1E9002391F840F000F108000C
:100FF00082FA4CF2A4FA8CF283FA4CF3A2FA8CF344
:101000004BBBD1E9022382FA4CF200F10800A4FAAA
:101010008CF283FA4CF3A2FA8CF3E3B9D1E90423FE
:1010200082FA4CF200F10800A4FA8CF283FA4CF335
:10103000A2FA8CF37BB9D1E9062301F1200182FAEF
:101040004CF200F10800A4FA8CF283FA4CF3A2FAF5
:101050008CF3002BC6D0002A04BF04301A4612BA03
:10106000B2FA82F2FDE8024500EBD2007047D1E906
:10107000002304F00305C4F100004FEAC50514F095
:10108000040F91F840F00CFA05F562EA05021CBF66
:1010900063EA050362464FF00004A9E74FEA410204
:1010A00012F5001215D211D56FF47873B3EB6252BA
:1010B00012D94FEAC12343F0004343EA505311F0E1
:1010C000004F23FA02F018BF404270474FF0000073
:1010D000704750EA013005D111F0004008BF6FF0B1
:1010E000004070474FF00000704700BF10B5044645
:1010F0000E4B18784FF47A73B3FBF0F30C4A106878
:10110000B0FBF3F000F0D0F868B90F2C01D9012042
:101110000AE0002221464FF0FF3000F069F8034B4F
:101120005C60002000E0012010BD00BF0000002036
:101130008C00002008B50B4B1A6842F400721A604C
:101140001A6842F480621A601A6842F480721A6067
:10115000032000F02FF80020FFF7C8FF04F08EFFF7
:10116000002008BD003C0240034A1168034B1B7875
:101170000B441360704700BFEC0B00200000002000
:10118000014B1868704700BFEC0B002038B50446CF
:10119000FFF7F6FF0546B4F1FF3F02D0044B1B7882
:1011A0001C44FFF7EDFF401BA042FAD338BD00BF3F
:1011B0000000002010B50446C31E042B0FD80A4AB5
:1011C000D36823F4E0631B041B0C240204F4E064E2
:1011D000234343F0BF6343F40033D36010BDA22127
:1011E000024804F01DFCEAE700ED00E078CA0008C0
:1011F00070B505460C4616460F2A25D80F2C28D860
:101200001B4BDB68C3F30223C3F10702042A28BF88
:101210000422191D062921D9033B4FF0FF3101FAA1
:1012200002F224EA02049C4001FA03F326EA0306D0
:101230003443002D14DB2401E4B205F1604505F5CB
:10124000614585F8004370BDBA210A4804F0E8FB07
:10125000D4E7BB21074804F0E3FBD1E70023DCE738
:1012600005F00F052401E4B2034B5C55EBE700BF2A
:1012700000ED00E078CA000814ED00E010B5041E8F
:1012800008DB04F01F02640901239340044A42F87A
:10129000243010BDCE21034804F0C2FBF1E700BFAB
:1012A00000E100E078CA00080138B0F1807F0AD27E
:1012B000064B5860064AF02182F8231000209860FF
:1012C00007221A6070470120704700BF10E000E05D
:1012D00000ED00E010B50446042800D038B9042C15
:1012E0000BD0094A136823F00403136010BD40F2C9
:1012F000D911064804F094FBF1E7034A136843F060
:1013000004031360F2E700BF10E000E078CA0008B1
:10131000704708B5FFF7FCFF08BD00002DE9F04756
:1013200082B080460E46A44B984217D003F58063E6
:10133000984213D003F5806398420FD003F5806381
:1013400098420BD003F58063984207D003F54063C1
:10135000984203D0C321994804F062FB33689AB2E3
:1013600012B11B0C1B041BB1C421944804F058FBA0
:101370007368012B1ED9112B1CD0022B1AD0122BF3
:1013800018D08F4A934215D002F58012934211D0A3
:1013900002F5801293420DD0A2F5F812934209D0C3
:1013A00002F58012934205D002F58012934201D0DB
:1013B000032B04D1B368022B06D8002445E0C521D5
:1013C0007E4804F02DFBF5E7C6217C4804F028FB9D
:1013D000F3E7EA21794804F023FB90E0042300E0DE
:1013E00000238B4003430232764941F82230764B8A
:1013F0001A68FB4303EA0201706810F4803F01D0D1
:1014000047EA0201704A1160526803EA02017068FB
:1014100010F4003F01D047EA02016B4A5160926824
:1014200003EA0201706810F4801F01D047EA02014C
:10143000654A9160D2681340716811F4001F01D0B1
:1014400047EA0203604AD36001340F2C00F2B080F7
:101450000125A54037682F40BD42F5D17368022BA6
:1014600001D0122B2BD13369CBB1092B17D0012B13
:1014700015D0022B13D0042B11D0052B0FD0062B27
:101480000DD0072B0BD0082B09D00A2B07D00C2B23
:1014900005D00F2B03D0D721484804F0C1FAE20849
:1014A000083258F8220004F0070399000F238B40FC
:1014B00020EA030033698B40034348F82230D8F810
:1014C00000204FEA440A4FF0030909FA0AF96FEACB
:1014D000090909EA0202736803F0030303FA0AF335
:1014E0001343C8F8003073685A1E012A03D9112B20
:1014F00001D0122B18D1F368032B3FF66AAFD8F84E
:10150000082009EA0202F36803FA0AF31343C8F851
:101510000830D8F8042022EA05027368C3F30015E6
:10152000A5401543C8F80450D8F80C3009EA03095F
:10153000B36803FA0AF343EA0903C8F80C30736886
:1015400013F0805F80D000230193204B5A6C42F44B
:1015500080425A645B6C03F480430193019BA208B0
:10156000911C184B53F8210004F0030399000F233A
:101570008B4020EA0300104B98453FF431AF03F550
:10158000806398450ED003F5806398450CD003F531
:10159000806398450AD003F5806398453FF41EAFF9
:1015A00007231EE701231CE702231AE7032318E79A
:1015B00002B0BDE8F08700BF00000240B4CA0008D6
:1015C0000000111000380140003C0140003802408A
:1015D000F8B504460D46474B984218D003F5806392
:1015E000984214D003F58063984210D003F58063CD
:1015F00098420CD003F58063984208D003F540630D
:10160000984204D04FF4A0713B4804F009FA00233B
:1016100007E0042000E0002000FA02F28A4250D0E5
:1016200001330F2B65D801229A4002EA0506B24227
:10163000F6D120685F000321B940C943084020600B
:101640004FEAD30C0CF1080C54F82CE003F007001F
:1016500080000F2707FA00F02EEA000044F82C0063
:10166000A0680840A060606820EA02026260E26848
:101670001140E1604FEA930C0CF102011F4A52F84D
:10168000211003F003029200974039401948844228
:10169000C1D000F5806084420DD000F580608442A6
:1016A0000BD000F58060844209D000F58060844250
:1016B000AFD00720B0E70120AEE70220ACE703205F
:1016C000AAE70E480CF1020250F8221021EA07079F
:1016D00040F822700A490868F243104008604868E0
:1016E00010404860886810408860C8680240CA603E
:1016F00096E7F8BD00000240B4CA00080038014077
:10170000003C014070B5064615460C4629B1012D36
:1017100009D875B92404B46170BD40F2AF11064810
:1017200004F07EF9F3E74FF4D871034804F078F938
:10173000EFE7B461F0E700BFB4CA0008F8B5066887
:10174000346A04F00F07C4F34343C4F30A14022BB2
:101750002ED16CB307EB8702D3000344596C39B325
:1017600005462246304602F0A7FEBA003A44D300AE
:101770002B445A6C22445A64DA6C2244DA6406EB35
:101780004713D3F810150B4A0A408AB1D3F8002545
:1017900022F0804242F00042C3F80025BB00D91974
:1017A000CA002A4492F8503083F0010382F8503086
:1017B000F8BD00BF0000F81F002840D0F0B58BB086
:1017C00006460368B3F1A04F03D08A211D4804F0F8
:1017D00027F9032386F89132304604F0F1FC306893
:1017E00002F027FE344654F810CB6D460FCC0FC5DF
:1017F0000FCC0FC594E8030085E80300371D97E878
:101800000E00604602F0D7FD0121306802F017FE9D
:10181000344654F810CB6D460FCC0FC50FCC0FC516
:1018200094E8030085E8030097E80E00604602F0A4
:101830007DFE012386F8913200200BB0F0BD01201F
:10184000704700BFF0CA00087047704730B583B0DA
:1018500005460468D4F840340193D4F8403400932A
:10186000009B23F02E030093019B13F0020F07D07F
:10187000019B13F0010F25D1009B43F0020300935D
:10188000019B13F0080F10D0009B43F00803009356
:10189000019B13F0040F31D0AB69022B19D0EB6818
:1018A000032B26D02846FFF7D0FF019B13F0200F13
:1018B00003D0009B43F020030093009BC4F8403406
:1018C00003B030BDA36923F00053A361FFF7BDFF50
:1018D000D2E7019B03F4C023B3F5802F04D001218C
:1018E000286802F099FEDDE70221286802F094FEE4
:1018F000D8E74EF66022C4F80424D3E7D4F8403485
:1019000023F02E03C4F840342A68936943F000534F
:101910009361CAE770477047F8B506460D460768F9
:1019200007EB411707F5A064A36813F0040F41D03B
:101930000423A360E36843F00203E360A36813F4A5
:10194000007F6DD1A36813F0010F00F08A80336926
:1019500063B1AB005919CA003244916C2269C2F3D9
:101960001202891A2B44DA003244D164AA002A44B4
:10197000D3003344012283F85D2000219965A260E1
:1019800093F83F30002B57D0022B55D0032B5DD15D
:10199000D7F8003543F00053C7F8003505EB850252
:1019A000D3003344012283F85C2029463046FFF7F8
:1019B000B2FF4BE0A36813F0200F02D02023A360F6
:1019C000BCE7A36813F0080F17D1A36813F4806F66
:1019D000B4D0E36843F00203E360006802F06CFEF9
:1019E0001023A36005EB8502D3003344082283F85B
:1019F0005D204FF48063A360A0E7E36843F0020337
:101A0000E36001EB8102D3000344052283F85D20EB
:101A10001023A3600823A360006802F04DFE8DE749
:101A2000E36843F00203E3602946306802F044FEB5
:101A30004FF40073A36013E0E36843F00203E36034
:101A40002946306802F038FE1023A360AB00591914
:101A5000CA00324492F8503083F0010382F85030CB
:101A6000F8BDA36813F0020F50D0E36823F002031F
:101A7000E36005EB8502D300334493F85D30012B1E
:101A800020D0052B32D0062B01D0082B21D1AA0063
:101A90002A44D30033449A6D511C9965032A2DD9E9
:101AA000AA002A44D300334400229A65042283F812
:101AB0005C20D7F8003523F0804343F00043C7F89B
:101AC000003506E005EB8502D3003344012283F89C
:101AD0005C200223A36005EB8502D300334493F816
:101AE0005C2029463046FFF716FFB9E705EB850273
:101AF000D3003344052283F85C20EAE705EB850236
:101B0000D3003344022283F85C20D2E7A36813F0A9
:101B1000800F26D1A36813F0100FA1D005EB85022A
:101B2000D300334493F83F30032B32D0AB00591924
:101B3000CA003244032182F85D101022A2601D44C5
:101B400005FA01F31E4496F83F300BB1022B87D102
:101B5000D7F8003523F0804343F00043C7F8003541
:101B60007EE7E36843F00203E360AB005919CA0063
:101B70003244916D013191652B44DA0032440623E1
:101B800082F85D302946306802F096FD8023A3601C
:101B900066E7E36843F00203E3602946306802F039
:101BA0008BFDC3E7F8B5046804EB411404F5A064A9
:101BB000A36813F0040F24D10E460546A36813F062
:101BC000200F25D02023A36001EB8102D300034422
:101BD00093F83D30012B1AD18F007A18D3000344BB
:101BE000042283F85D20E36843F00203E3600068A9
:101BF00002F062FDB919C8002844022380F85C3065
:101C000005E00423A360E36843F00203E360F8BD4A
:101C1000A36813F0400F4CD1A36813F4007F5FD189
:101C2000A36813F0010F66D1A36813F0080F77D1F2
:101C3000A36813F0100F40F08480A36813F0800FA6
:101C400040F09580A36813F4806F40F0A180A368F2
:101C500013F0020FDBD0E36823F00203E36001EB33
:101C60008102D300034493F85D30012B00F0A4807F
:101C7000032B00F0C480042B00F0C980052B00F07A
:101C8000D180062B02D0082B40F0A180B200324454
:101C9000D3002B449A6D511C9965032A40F2CA80E7
:101CA000282303FB065300229A65042283F85C2054
:101CB0008DE08B005918CA000244042182F85D109F
:101CC0003344DA00024400239365E36843F00203DF
:101CD000E3603146006802F0EFFC4023A36096E722
:101CE000E36843F00203E360006802F0E5FC4FF4B0
:101CF0000073A3608BE78F007A18D300034400229F
:101D00009A65E36843F00203E360006802F0D4FCE4
:101D10000123A360B919C800284480F85D3076E734
:101D20000823A360E36843F00203E360006802F065
:101D3000C3FC06EB8601C8002844052380F85D300B
:101D400065E78F007A18D300034400229A65E368A0
:101D500043F00203E360006802F0AEFCB919C8006A
:101D60002844032380F85D301023A3604FE7E36825
:101D700043F00203E360006802F09EFC06EB86017C
:101D8000CB002B44062283F85D208023A3603EE72E
:101D9000E36843F00203E360006802F08DFC102367
:101DA000A3604FF48063A36006EB8601CB002B4455
:101DB000082283F85D202AE78A000A44D3000344FE
:101DC000012283F85C2093F83F30022B0CD00223D1
:101DD000A36006EB8602D3002B4493F85C203146C7
:101DE0002846FFF798FD12E78A000A44D30003440F
:101DF00093F8512082F0010283F85120E7E701EBCC
:101E00008102D3000344022283F85C20DFE78A00CA
:101E10000A44D3000344022283F85C20002283F8A2
:101E20003D20D4E701EB8102D3000344052283F86F
:101E30005C20CCE7282303FB0653022283F85C20B6
:101E4000C5E7F8B504460568284602F04DFB0128B1
:101E500000D0F8BD206802F043FB0028F9D02068CC
:101E600002F03EFB10F4001F03D023684FF4001271
:101E70005A61206802F034FB10F4801F03D02368FD
:101E80004FF480125A61206802F02AFB10F0806F34
:101E900003D023684FF080625A61206802F020FB73
:101EA00010F0020F02D0236802225A61206802F06B
:101EB00017FB10F0005F25D1206802F011FB10F035
:101EC000807F31D1206802F00BFB10F0080F2FD17A
:101ED000206802F005FB10F0007F30D1206802F08E
:101EE000FFFA10F0100FB4D02268936923F01003AA
:101EF00093612046FFF722FC2268936943F01003A8
:101F00009361A6E7D5F8403423F02E03C5F840349A
:101F10002046FFF7FFFC0121206802F07DFB2368CB
:101F20004FF000525A61C7E72046FFF78FFCC9E720
:101F30002046FFF789FC236808225A61C8E7206819
:101F400002F0ABFB0746002604E0F1B22046FFF7A3
:101F500029FE0136A368B3420FD90123B3403B42A7
:101F6000F7D005EB4613D3F8003513F4004FECD04F
:101F7000F1B22046FFF7D0FCEBE723684FF0007288
:101F80005A61ABE703685A6912F4806F0DD06FF4A1
:101F900080625A610423036400230363202280F8D3
:101FA0003D2080F83C300120704700207047F8B594
:101FB00006460C4617461D461EE02DB1FFF7E0F819
:101FC000069BC01AA84217D900233363202286F843
:101FD0003D2086F83E3086F83C3003201AE0336816
:101FE0005B6924EA03039BB2B3FA83F35B099F4264
:101FF0000FD1B5F1FF3FE0D1C4F30743012BEED081
:1020000033689B6924EA03039BB2B3FA83F35B0949
:10201000EDE70020F8BDF8B504460D4616461F460C
:1020200032E01A6842F400721A6023686FF480622A
:102030005A610423236400232363202284F83D2073
:1020400084F83C3001202DE026B1FFF799F8C01B41
:10205000B04219D900232363202284F83D2084F85C
:102060003C3003201EE023685B6925EA03039BB232
:10207000003318BF0123A3B123685A6912F4806F9B
:10208000CFD1B6F1FF3FDFD1C5F30743012BEAD033
:1020900023689B6925EA03039BB2003318BF012321
:1020A000E9E70020F8BD70B504460D4616462368E2
:1020B0005B6913F0800F19D12046FFF763FFB8B9B1
:1020C000B5F1FF3FF3D025B1FFF75AF8801BA842C6
:1020D000EDD9236C43F020032364002323632022E3
:1020E00084F83D2084F83C30032000E0002070BDDF
:1020F0000120FCE72DE9F04184B004460E46174666
:1021000098460B9D0268136843F480731360009532
:102110000A9B00224FF00111FFF749FF002847D129
:10212000236806F0FE061E612B460A9A26492046C1
:10213000FFF771FF20B1236C042B3ED1012338E05F
:102140000023039323685A6903929B690393039BBB
:102150002A460A992046FFF7A6FF034648B1236C9A
:10216000042B2CD12268136843F4007313600123FD
:102170001FE0B8F1010F13D023683A0A1A612A460A
:102180000A992046FFF78FFF034668B1236C042BA2
:1021900017D12268136843F400731360012308E029
:1021A0002268FFB2176104E02268FFB2176100E005
:1021B0000323184604B0BDE8F0810323F9E70323A5
:1021C000F7E70323F5E700BF020001002DE9F04126
:1021D00084B004460E46174698460B9D0268136865
:1021E00043F4806313600268136843F480731360E0
:1021F00000950A9B00224FF00111FFF7D8FE00283E
:1022000074D1F6B2236806F0FE021A612B460A9AD0
:102210003F492046FFF7FFFE20B1236C042B6AD113
:10222000012364E00023039323685A6903929B69A6
:102230000393039B2A460A992046FFF734FF48B1CF
:10224000236C042B59D12268136843F40073136084
:1022500001234CE0B8F1010F12D12368FFB21F61D6
:102260002A460A992046FFF71EFF00B3236C042B71
:1022700047D12268136843F400731360012336E0EA
:1022800023683A0A1A612A460A992046FFF70BFF8B
:1022900048B1236C042B32D12268136843F40073D5
:1022A0001360012323E02368FFB21F61D8E722688F
:1022B000136843F48073136000950A9B00224FF06B
:1022C00001112046FFF773FEE8B9236846F00106C6
:1022D0001E612B460A9A0E492046FFF79CFE0346D4
:1022E00028B1236C042B10D1012300E003231846EE
:1022F00004B0BDE8F0810323F9E70323F7E70323E4
:10230000F5E70323F3E70323F1E70323EFE700BF38
:102310000200010070B504460D46164623685B694D
:1023200013F0040F19D12046FFF72CFEB8B9B5F110
:10233000FF3FF3D025B1FEF723FF801BA842EDD964
:10234000236C43F02003236400232363202284F8BA
:102350003D2084F83C30032000E0002070BD0120C7
:10236000FCE770B505460C4616462B685A6912F014
:10237000400F22D15A6912F0100F11D124B1FEF78B
:10238000FFFE801BA042F0D92B6C43F020032B648E
:10239000202385F83D30002385F83C30032070BDB4
:1023A0006FF010025A6100232B642B63202285F802
:1023B0003D2085F83C300120F1E70020EFE70000E8
:1023C000002800F0EB8010B504460368744A93427D
:1023D0000CD002F58062934208D002F580629342ED
:1023E00004D04FF4B7716F4803F01AFB6368013BE8
:1023F0006D4A934267D8A36813B1B3F5804F68D193
:10240000E36823F47F7323F00303002B67D1236970
:10241000B3F5804F02D0B3F5404F66D16369012B0D
:1024200069D8A36933F0FE036BD1E3690BB1402B8C
:102430006DD1236A0BB1802B6FD194F83D30002B06
:1024400071D0242384F83D302268136823F00103FF
:10245000136001F08FFA554BA3FB00239B0C2268FD
:1024600053606168524A914263D801332268136213
:1024700063684F4A934266D85B00B0FBF3F0C0F349
:102480000B03032B00D804202368D861E369216A79
:1024900022680B4313602369E16822680B43936051
:1024A0006369A16922680B43D3602268136843F013
:1024B0000103136000202064202384F83D30206352
:1024C00084F83E0010BD40F26F11364803F0A8FAC0
:1024D00091E74FF4B871334803F0A2FA90E740F265
:1024E0007111304803F09CFA91E74FF4B9712D480F
:1024F00003F096FA92E740F273112A4803F090FA3B
:102500008FE74FF4BA71274803F08AFA8DE740F25B
:102510007511244803F084FA8BE74FF4BB7121480E
:1025200003F07EFA89E784F83C30204602F0AEFAE8
:1025300087E74FF4967202FB03F31E4AA2FB0323C4
:102540009B09013392E7A16889B903EB4302B0FB11
:10255000F2F2C2F30B02B2FA82F25209E2B991B975
:1025600003EB4303B0FBF3F040F400408CE703EBD4
:10257000830202EB8202B0FBF2F2C2F30B02B2FA68
:1025800082F25209EAE703EB830303EB8303B0FB18
:10259000F3F040F4404077E7012075E701207047F1
:1025A0000054004028CB00087F1A060083DE1B433E
:1025B000A0860100D34D621038B310B504460368FD
:1025C000134A93420CD002F58062934208D002F580
:1025D0008062934204D040F2BD110E4803F020FA0D
:1025E000242384F83D302268136823F0010313602C
:1025F000204602F075FA0020206484F83D00206334
:1026000084F83E0084F83C0010BD0120704700BFF4
:102610000054004028CB00082DE9F04182B0044668
:102620000F4690461E46FEF7ABFD0546012E01D033
:10263000102E09D194F83D30DBB2202B0AD00223B2
:10264000184602B0BDE8F08140F66B11544803F023
:10265000E7F9EFE700951923012252492046FFF7D9
:10266000A6FC002840F0938094F83C30012B00F049
:102670009080012384F83C3023681A6812F0010F1F
:1026800003D11A6842F001021A602268136823F429
:1026900000631360212384F83D30402384F83E30EA
:1026A00000232364089B6362BDF8243063853E4B9E
:1026B000E362638D238501950A9B0093334642466E
:1026C00039462046FFF716FDB0B1236C042B04D128
:1026D000002384F83C300123B2E7002384F83C3027
:1026E0000323ADE7236C042B55D12268136843F410
:1026F000007313600123A3E7238D002B28D02A4603
:102700000A992046FFF7CFFC0028EBD1636A5A1CD8
:10271000626222681B781361238D013B9BB2238583
:10272000628D013A92B262852268516911F0040FFC
:10273000E2D0002BE0D0636A591C61621B78136100
:10274000238D013B2385638D013B9BB26385D3E7DA
:102750002A460A992046FFF7DDFD034648B1236C5F
:10276000042B1AD12268136843F400731360012309
:1027700066E721680A6842F400720A60202284F841
:102780003D20002284F83E2084F83C2058E70223B4
:1027900056E7022354E7032352E7032350E700BF21
:1027A00028CB0008020010000000FFFF2DE9F041D7
:1027B00086B004460F4690461E46FEF7E1FC0546ED
:1027C000012E01D0102E09D194F83D30DBB2202B20
:1027D0000AD00226304606B0BDE8F0814FF41F61F2
:1027E0008E4803F01DF9EFE70095192301228C496B
:1027F0002046FFF7DCFB002840F04D8194F83C3088
:10280000012B00F04A81012384F83C3023681A68C8
:1028100012F0010F03D11A6842F001021A60226817
:10282000136823F400631360222384F83D304023AF
:1028300084F83E30002323640C9B6362BDF834307F
:102840006385784BE362638D238501950E9B00932E
:102850003346424639462046FFF7B8FC064660B18B
:10286000236C042B04D1002384F83C300126B1E70B
:10287000002384F83C300326ACE7238D5BB9029338
:1028800023685A6902929A690292029A1A6842F47B
:1028900000721A6075E0012B0AD0022B1AD00023B7
:1028A000059323685A6905929B690593059B68E027
:1028B0002268136823F48063136000230393236862
:1028C0005A6903929A690392039A1A6842F4007251
:1028D0001A6056E02268136823F48063136022684C
:1028E000136843F4006313600023049323685A6958
:1028F00004929B690493049B43E02A460E99204668
:10290000FFF72FFD68B923681A69636A591C616271
:102910001A70238D013B2385638D013B9BB2638538
:102920002FE0236C202B01D0012653E7032651E72B
:1029300000950E9B00223C492046FFF738FB0028FB
:1029400040F0AD802268136843F40073136023687D
:102950001A69636A591C61621A70238D013B2385D1
:10296000638D013B9BB2638523681A69636A591CB6
:1029700061621A70238D013B2385638D013B9BB2FD
:102980006385238D002B7DD0032B4FD8012BB4D032
:10299000022BCDD000950E9B002223492046FFF745
:1029A00006FB00287DD12268136823F4806313603E
:1029B00023681A69636A591C61621A70238D013B8E
:1029C0002385638D013B9BB2638500950E9B00229E
:1029D00015492046FFF7EBFA002864D122681368F6
:1029E00043F40073136023681A69636A591C6162B7
:1029F0001A70238D013B2385638D013B9BB2638558
:102A000023681A69636A591C61621A70238D013B3D
:102A10002385638D013B9BB26385B2E728CB000819
:102A2000020010000000FFFF040001002A460E997A
:102A30002046FFF796FCF0B923681A69636A591CAF
:102A400061621A70238D013B2385638D013B9BB22C
:102A5000638523685A6912F0040F92D01A69636A79
:102A6000591C61621A70238D013B2385638D013BE4
:102A70009BB2638585E7236C202B01D00126A9E654
:102A80000326A7E6202384F83D30002384F83E3057
:102A900084F83C309EE602269CE602269AE603264F
:102AA00098E6032696E6032694E600BF90F83D00DC
:102AB0007047704708B5436A9A1C426202681B88D7
:102AC000D360438D013B9BB24385438D9BB203B1E1
:102AD00008BD0268536823F0A0031B041B0C53605D
:102AE000012380F84130FFF7E4FFF1E7704708B5B4
:102AF0000368DA68C36A991CC1621A80438E013B7D
:102B00009BB24386438E9BB203B108BD02685368F3
:102B100023F060031B041B0C5360012380F8413039
:102B2000FFF7E4FFF1E77047002800F0328170B54D
:102B300004460368984A934213D0A2F57842934220
:102B40000FD002F5806293420BD002F57842934297
:102B500007D002F5E052934203D0E3218F4802F000
:102B60005FFF63684BB1B3F5807F06D0B3F5007F9C
:102B700003D0B3F5407F40F08280A3683BB1102BB7
:102B800005D0202B03D0302B01D0B02B7CD1E368B3
:102B9000012B03D9032B01D0052B7AD12369B3F57F
:102BA000007F01D0002B79D16369A3F5FA517C4AEB
:102BB000914201D9022B76D1A3690BB1082B77D1B1
:102BC000E369012B79D8022584F84150754B636382
:102BD000204601F0E1FF2268D36923F47B6323F0F0
:102BE0000F03D36123681D622368DD696369022BCB
:102BF00000F08280E368002B64D02026A368202B9D
:102C000000D87600012001F02BF82369B3F5007F8E
:102C10005AD0B0FBF6F000EB800043006269B3FBD2
:102C2000F2F30533604AA2FB0323DB0803F0010241
:102C30009B1AC3F34F0311029A1EFD2A5ED8226924
:102C40000A43216813430B626268A168E068238B22
:102C500003439BB20B439BB213439BB243F4006309
:102C60001D432368DD61236A012B50D8236A012BA1
:102C700053D000206064012384F8413070BDE4210A
:102C8000464802F0CDFE78E7E521444802F0C8FE50
:102C90007DE7E621414802F0C3FE7FE7E7213F4898
:102CA00002F0BEFE80E7E8213C4802F0B9FE83E76F
:102CB000E9213A4802F0B4FE82E7EA21374802F0FF
:102CC000AFFE80E7102699E7E36853B1B600B0FB8A
:102CD000F6F000EB800043006269B3FBF2F30533CA
:102CE000A0E7F600B0FBF6F000EB8000430062695D
:102CF000B3FBF2F3053395E700219DE7636C43F0E6
:102D0000100363642046FFF70EFF0120B6E74FF47F
:102D1000B671224802F084FEA8E7244B6363226860
:102D2000234B9A421ED04FF04022D36923F47B6399
:102D300023F00F03D36122681D4B9A4214D04FF049
:102D40004022022313622268194B9A420ED04FF0A0
:102D50004022D0696168B1F5007F09D0B9B94FF45C
:102D6000807607E0134AE0E7124AEAE7114AF0E703
:102D70004FF48076A168E568238B2B439BB20B430D
:102D80009BB2334343F400630343D36171E70026EE
:102D9000F0E70120704700BF0030014060CB000821
:102DA000C0CE0200B92D0008CDCCCCCCD52F000868
:102DB000003800400034004010B584B0044602687A
:102DC0009368039390F84130DBB2042B06D094F85B
:102DD0004130DBB2032B2ED004B010BD039B13F0A7
:102DE000010F03D0536813F0400F21D1039B13F060
:102DF000400FECD023685A6812F0200FE7D05A68D1
:102E000022F060021204120C5A600023019323681E
:102E1000DA6801929B680193019B012384F8413099
:102E2000636C43F0020363642046FFF77CFECEE749
:102E3000FFF75DFEDAE7039B13F0020F04D023686F
:102E40005B6813F0800F1FD1039B13F0080FC3D0F2
:102E500023685A6812F0200FBED05A6822F0A002F0
:102E60001204120C5A600023029323689B68029399
:102E7000029B012384F84130636C43F004036364D4
:102E80002046FFF750FEA7E72046FFF713FEDBE7DB
:102E90007047000008B5E9B9436A9A1C42620268AB
:102EA0001B88D360438D013B9BB24385438D9BB20E
:102EB0004BB90268536823F0A0031B041B0C53603A
:102EC000438E9BB203B108BD012380F84130FFF768
:102ED000DFFFF8E7436A9A1C42621A880168134BC5
:102EE00099421ED04FF04023DA60438D013B9BB2E4
:102EF0004385438D9BB2002BE5D102680B4B9A4270
:102F000012D04FF04022536823F0A0035360438E49
:102F10009BB2002BD7D1012380F84130FFF7B8FFD7
:102F2000D1E7A3F58063DFE7014AECE70038004012
:102F30000034004008B5E9B90368DA68C36A991C2F
:102F4000C1621A80438E013B9BB24386438E9BB283
:102F50004BB90268536823F060031B041B0C5360D9
:102F6000438D9BB203B108BD012380F84130FFF7C8
:102F70008FFFF8E70268154B9A4222D04FF04023AA
:102F8000DA68C36A991CC1621A80438E013B9BB206
:102F90004386438E9BB2002BE5D102680B4B9A42CD
:102FA00012D04FF04022536823F060035360438DEA
:102FB0009BB2002BD7D1012380F84130FFF768FF87
:102FC000D1E7A3F58063DBE7014AECE70038004076
:102FD0000034004010B584B0044603689A68039238
:102FE0007C4A93425DD04FF040218A680292DA69B0
:102FF00002F44072B2F5007F04D0DA6912F4407F27
:1030000040F08180039A12F0020F03D05B6813F046
:10301000800F48D1029B13F0010F09D022686D4B3D
:103020009A4245D04FF040235B6813F0400F42D1E5
:10303000029B13F0400F09D02268664B9A423FD0A2
:103040004FF040235A6812F0200F3CD1039B13F03D
:10305000080F24D023685A6812F0200F1FD05A6836
:1030600022F0A0021204120C5A602268594B9A42B4
:1030700047D04FF04022536823F060035360002391
:10308000019323689B680193019B012384F84130DD
:10309000636C43F0040363642046FFF744FD04B00F
:1030A00010BD4D49A1E700212046FFF7F3FEB1E72F
:1030B000A3F58063B8E701212046FFF73BFFB7E7A0
:1030C000A3F58063BEE75A6822F060025A60226866
:1030D000536823F0A0031B041B0C536000230093D0
:1030E0002368DA6800929B680093009B012384F8B0
:1030F0004130636C43F0020363642046FFF713FD25
:10310000A4E7354AB7E7029B13F0020F03D04B68E0
:1031100013F0800F4FD1039B13F0010F04D02368ED
:103120005B6813F0400F4BD1039B13F0400F1ED090
:1031300023685A6812F0200F19D05A6822F06002F2
:103140001204120C5A602268224B9A423DD04FF072
:103150004022536823F0A0035360012384F84130D8
:10316000636C43F0020363642046FFF7DCFC029BC0
:1031700013F0080F93D02268164B9A4227D04FF0D5
:1031800040235A6812F0200F89D05A6822F0A0021A
:103190005A602268536823F060031B041B0C5360C1
:1031A000012384F84130636C43F0040363642046D8
:1031B000FFF7B9FC73E701212046FFF76BFEAAE792
:1031C00000212046FFF7B6FEAEE7034AC1E7A3F5AC
:1031D0008063D6E70038004000340040002800F04B
:1031E0003B8270B582B0044603680F2B39D8236840
:1031F00013F0010F4DD063682BB1B3F5803F02D0BF
:10320000B3F5A02F32D1A54B9B6803F00C03042B20
:1032100036D0A24B9B6803F00C03082B2BD06368BD
:10322000B3F5803F5FD0B3F5A02F62D09B4B1A68F7
:1032300022F480321A601A6822F480221A606368CD
:10324000002B60D0FDF79CFF0546944B1B6813F4E0
:10325000003F1ED1FDF794FF401B6428F5D90320E1
:10326000FFE1F8218E4802F0DBFBC0E7FD218C482E
:1032700002F0D6FBC7E7894B5B6813F4800FCED012
:10328000864B1B6813F4003F03D06368002B00F0EB
:10329000E581236813F0020F67D0E368012B41D862
:1032A00023691F2B44D87D4B9B6813F00C0F4AD029
:1032B0007A4B9B6803F00C03082B3FD0E368002B8C
:1032C00077D0784B01221A60FDF75AFF0546734B01
:1032D0001B6813F0020F63D1FDF752FF401B022859
:1032E000F5D90320BDE16D4A136843F480331360C0
:1032F000A5E76A4B1A6842F480221A601A6842F401
:1033000080321A609BE7FDF73BFF0546634B1B6865
:1033100013F4003FBDD0FDF733FF401B6428F5D9FF
:1033200003209EE140F22F115D4802F079FBB7E7E0
:103330004FF498715A4802F073FBB4E7574B5B683F
:1033400013F4800FBAD1554B1B6813F0020F04D051
:10335000E368012B01D0012083E1504A136823F078
:10336000F803216943EAC1031360236813F0080FCF
:1033700049D06369012B2ED8636993B34A4B01226C
:103380001A60FDF7FDFE0546444B5B6F13F0020F1C
:1033900039D1FDF7F5FE401B0228F5D9032060E185
:1033A0003E4A136823F0F803216943EAC10313601E
:1033B000DBE73C4B00221A60FDF7E2FE0546374B87
:1033C0001B6813F0020FD0D0FDF7DAFE401B022875
:1033D000F5D9032045E14FF4B871314802F020FBE4
:1033E000CAE7314B00221A60FDF7CAFE05462B4B97
:1033F0005B6F13F0020F06D0FDF7C2FE401B0228E0
:10340000F5D903202DE1236813F0040F00F0878025
:10341000A368012B01D9052B38D1204B1B6C13F06D
:10342000805F39D1002301931C4B1A6C42F080520B
:103430001A641B6C03F080530193019B01251B4B05
:103440001B6813F4807F33D0A368012B44D0052B75
:1034500048D0124B1A6F22F001021A671A6F22F03D
:1034600004021A67A368002B46D0FDF789FE0646C2
:103470000A4B1B6F13F0020F4FD1FDF781FE801B2B
:1034800041F288339842F3D90320EAE04FF4CE7139
:10349000034802F0C5FAC0E70025D0E70038024033
:1034A00098CB000800004742800E47420070004061
:1034B0006E4A136843F480731360FDF761FE06469D
:1034C0006A4B1B6813F4807FBED1FDF759FE801B49
:1034D0000228F5D90320C4E0654A136F43F00103C5
:1034E0001367BFE7624B1A6F42F004021A671A6F44
:1034F00042F001021A67B5E7FDF742FE06465C4B53
:103500001B6F13F0020F08D0FDF73AFE801B41F24B
:1035100088339842F3D90320A3E0002D3AD1A36960
:10352000022B3DD8A369002B00F09A80504A926884
:1035300002F00C02082A00F09680022B78D1E36991
:1035400013B1B3F5800F31D1236A3F2B34D8636AAE
:10355000C03BF02B36D8A36A022B05D0042B03D036
:10356000062B01D0082B33D1E36A023B0D2B35D853
:10357000404B00221A60FDF703FE05463C4B1B68DA
:1035800013F0007F30D0FDF7FBFD401B0228F5D97A
:10359000032066E0364A136C23F080531364BEE7C1
:1035A00040F2DF11344802F03BFABBE74FF4F4710C
:1035B000314802F035FAC7E740F2E9112E4802F02F
:1035C0002FFAC4E74FF4F5712B4802F029FAC2E74D
:1035D00040F2EB11284802F023FAC5E74FF4F671E8
:1035E000254802F01DFAC3E7E369226A1343626AC1
:1035F00043EA8213A26A5208013A43EA0243E26AAA
:1036000043EA02631A4A53601A4B01221A60FDF71B
:10361000B7FD0446164B1B6813F0007F06D1FDF77B
:10362000AFFD001B0228F5D903201AE0002018E0A6
:10363000104B00221A60FDF7A3FD04460C4B1B68DB
:1036400013F0007F06D0FDF79BFD001B0228F5D983
:10365000032006E0002004E001207047012000E084
:10366000002002B070BD0120FBE700BF00700040E9
:10367000003802406000474298CB0008324B9B68FC
:1036800003F00C03042B5CD0082B01D02F487047AB
:103690002DE9F04B2C4B5A6802F03F025B6813F4A3
:1036A000800F2BD0284B5B68C3F388131E4600277E
:1036B0005C010025E41A65EB0705A90141EA946164
:1036C000A001001B61EB0501CB0043EA5073C4006D
:1036D000A01943EB07014B0243EAD05344022046B2
:1036E00019460023FDF7F8F9174B5B68C3F3014354
:1036F00001335B00B0FBF3F0BDE8F08B124B5B686D
:10370000C3F388131E4600275C010025E41A65EB0D
:103710000705A90141EA9461A001001B61EB0501C5
:10372000CB0043EA5073C400A01943EB07018B029E
:1037300043EA90538402204619460023FDF7CCF952
:10374000D2E70348704700BF003802400024F4006D
:1037500000127A00002800F0F98070B504460D468A
:103760000368013B0E2B11D8072D15D8794B1B6828
:1037700003F00F03AB4215D2EBB2764A1370136815
:1037800003F00F03AB420DD0012070BD4FF4147154
:10379000714802F045F9E7E740F251216E4802F026
:1037A0003FF9E3E7236813F0020F29D013F0040F69
:1037B00004D06A4A936843F4E0539360236813F09B
:1037C000080F04D0654A936843F460439360A3688C
:1037D0007BB1802B0DD0902B0BD0A02B09D0B02B20
:1037E00007D0C02B05D0D02B03D0E02B01D0F02B7D
:1037F00033D15A4A936823F0F003A1680B439360D6
:10380000236813F0010F42D06368032B2BD8636841
:10381000012B2ED09A1E012A32D9504A126812F07A
:10382000020F00F095804D498A6822F0030213438D
:103830008B60FDF7A5FC0646484B9B6803F00C0324
:103840006268B3EB820F22D0FDF79AFC801B41F235
:1038500088339842F0D9032097E74FF41D713E4812
:1038600002F0DEF8C5E740F27B213B4802F0D8F8D1
:10387000CDE73A4A126812F4003FD4D1012084E720
:10388000364A126812F0007FCDD101207DE7314B1E
:103890001B6803F00F03AB4209D9EAB22D4B1A7033
:1038A0001B6803F00F03AB4201D001206DE72368D2
:1038B00013F0040F14D0E3685BB1B3F5805F08D058
:1038C000B3F5A05F05D0B3F5C05F02D0B3F5E05FFC
:1038D00030D1224A936823F4E053E1680B439360AC
:1038E000236813F0080F15D023695BB1B3F5805F2F
:1038F00008D0B3F5A05F05D0B3F5C05F02D0B3F533
:10390000E05F1DD1154A936823F46043216943EABF
:10391000C1039360FFF7B2FE104B9B68C3F3031320
:103920000F4AD35CD8400F4B18600020FDF7DEFB38
:1039300000202AE740F2B921074802F071F8C8E7F1
:103940004FF43071044802F06BF8DBE70120704758
:1039500001201AE7003C024098CB000800380240E2
:1039600060CA00088C000020014B1868704700BF37
:103970008C00002008B5FFF7F7FF044B9B68C3F3EA
:103980008223034AD35CD84008BD00BF0038024000
:1039900070CA000830B583B004460368013B0E2BA3
:1039A00021D8236813F0050F51D0E368023B052BA3
:1039B0001FD8A368C03BF02B21D86368023B3D2B86
:1039C00023D8A04B00221A60FDF7DAFB05469E4B78
:1039D0001B6813F0006F1ED0FDF7D2FB401B0228BE
:1039E000F5D903200DE140F6DD11984802F018F8F2
:1039F000D7E740F6E411954802F012F8D9E740F60F
:103A0000E511924802F00CF8D7E740F6E7118F482D
:103A100002F006F8D5E76368A26843EA8213E26819
:103A200043EA0273884AC2F88430864B01221A6046
:103A3000FDF7A6FB0546844B1B6813F0006F06D10B
:103A4000FDF79EFB401B0228F5D90320D9E023682F
:103A500013F0020F00F0CD802369B3F5807F7ED094
:103A6000B3F5007F7BD07A4A934278D002F580325A
:103A7000934274D002F58032934270D002F58032C6
:103A800093426CD002F58032934268D002F58032C6
:103A9000934264D002F58032934260D002F58032C6
:103AA00093425CD002F58032934258D002F58032C6
:103AB000934254D002F58032934250D002F58032C6
:103AC00093424CD002F58032934248D002F58032C6
:103AD000934244D002F58032934240D002F58032C6
:103AE00093423CD002F58032934238D002F58032C6
:103AF000934234D002F58032934230D002F58032C6
:103B000093422CD002F58032934228D002F58032C5
:103B1000934224D002F58032934220D002F58032C5
:103B200093421CD002F58032934218D002F58032C5
:103B3000934214D002F58032934210D002F58032C5
:103B400093420CD002F58032934208D002F58032C5
:103B5000934204D040F616213C4801F061FF002357
:103B60000193394B1A6C42F080521A641B6C03F0BB
:103B700080530193019B374A136843F480731360A9
:103B8000FDF7FEFA0546334B1B6813F4807F06D120
:103B9000FDF7F6FA401B0228F5D9032031E02A4B45
:103BA0001B6F13F4407312D0226902F440729A42E0
:103BB0000DD0254B1A6F22F440722749012008606E
:103BC000002008601A671B6F13F0010F1BD12369D7
:103BD00003F44072B2F5407F26D01B4A936823F469
:103BE000F813936018490B6F2269C2F30B02134359
:103BF0000B67236813F0080F21D0227D174B1A6042
:103C0000002003B030BDFDF7BBFA05460E4B1B6F1D
:103C100013F0020FDBD1FDF7B3FA401B41F28833FA
:103C20009842F3D90320ECE707498A6822F4F81296
:103C300023F0704323F4407313438B60D2E70020DA
:103C4000DFE700BF6800474200380240D0CB0008E1
:103C50000003020000700040400E4742E01147425E
:103C600001282CD1184B9B6813F4000303D0012BBF
:103C700027D116487047144B5B6813F4800F15D09A
:103C8000114BD3F8843003F03F031148B0FBF3F03D
:103C90000D4AD2F88430C3F3881300FB03F0D2F846
:103CA0008430C3F30273B0FBF3F07047064BD3F8D4
:103CB000843003F03F030748B0FBF3F0E8E700204F
:103CC00070470020704700BF003802400080BB00F2
:103CD00000127A000024F400F8B505460F46164697
:103CE0001C463BE02CB1FDF74BFA069BC01AA042E4
:103CF00034D32A68536823F0E00353606B68B3F54C
:103D0000827F0BD0AB6AB3F5005F14D0012385F836
:103D10005130002385F85030032027E0AB68B3F51D
:103D2000004F02D0B3F5806FECD12A68136823F0FE
:103D300040031360E6E72A68136823F400531B046A
:103D40001B0C13602A68136843F400531360DDE70B
:103D50000123B34209D0B4F1FF3FC3D12B689B6864
:103D600037EA0303F4D00023F3E70020F8BD10B5D1
:103D700082B0044600920B4600228021FFF7ACFF80
:103D8000034610B9184602B010BD636D43F020031E
:103D900063650323F6E70000002800F0C88010B533
:103DA00004460368634A934214D0A2F578429342D2
:103DB00010D002F5806293420CD002F57842934213
:103DC00008D002F5E052934204D04FF487715A486C
:103DD00001F026FE636813B1B3F5827F6BD1A3684F
:103DE0002BB1B3F5806F02D0B3F5004F69D1E36812
:103DF000B3F5006F01D0002B69D1A369B3F5007F43
:103E000003D013B1B3F5802F67D1E3696BB1082BF1
:103E10000BD0102B09D0182B07D0202B05D0282B26
:103E200003D0302B01D0382B5DD1236A0BB1802B0E
:103E30005FD1636A0BB1102B61D1636A33B9236917
:103E40000BB1022B61D16369012B64D80023A362FB
:103E500094F85130002B64D0022384F8513022684A
:103E6000136823F0400313606368A2681343E26899
:103E700013432269134362691343A26902F4007277
:103E80001343E2691343226A1343A16A22680B4376
:103E90001360638B03F00403616A22680B43536071
:103EA0002268D36923F40063D36100206065012395
:103EB00084F8513010BD40F20F111F4801F0B0FDE1
:103EC0008DE74FF488711C4801F0AAFD8FE740F29E
:103ED0001111194801F0A4FD8FE74FF489711648BC
:103EE00001F09EFD91E740F21311134801F098FD97
:103EF0009BE74FF48A71104801F092FD99E740F278
:103F000015110D4801F08CFD97E74FF48C710A48AC
:103F100001F086FD97E740F21911074801F080FD96
:103F200094E784F85030204601F0C6FD94E7012064
:103F3000704700BF003001400CCC000860B310B5E2
:103F400004460368154A934214D0A2F5784293427E
:103F500010D002F5806293420CD002F57842934271
:103F600008D002F5E052934204D04FF4B0710C48EF
:103F700001F056FD022384F851302268136823F0C3
:103F800040031360204601F0EDFD0020606584F8D9
:103F9000510084F8500010BD0120704700300140EE
:103FA0000CCC00082DE9F04184B004460D46904643
:103FB0001E46836813B1B3F5004F1AD194F8503000
:103FC000012B00F0CB80012384F85030FDF7D8F8A6
:103FD000074694F85130DBB2012B10D002230122A6
:103FE00084F85120002284F85020184604B0BDE81F
:103FF000F08140F2C5115A4801F012FDDEE7002DB4
:1040000000F0A480B8F1000F00F0A280032384F830
:104010005130002363652563A4F83480A4F836800A
:10402000A363A387E38763642364A368B3F5004FA6
:104030001BD023681A6812F0400F03D11A6842F0AF
:1040400040021A60E368B3F5006F14D063681BB1D7
:10405000E38E9BB2012B3ED1236815F8012B1A7316
:10406000E38E013B9BB2E38635E02268136843F49C
:1040700080431360DDE763681BB1E38E9BB2012BC5
:104080000DD1236835F8022BDA60E38E013B9BB239
:10409000E38604E0002E5DD0B6F1FF3F0FD1E38E42
:1040A0009BB27BB323689A6812F0020FF2D035F806
:1040B000022BDA60E38E013B9BB2E386EFE7FDF76C
:1040C0005FF8C01BB042EAD3032388E7002E43D039
:1040D000B6F1FF3F0FD1E38E9BB29BB123689A6884
:1040E00012F0020FF2D015F8012B1A73E38E013B88
:1040F0009BB2E386EFE7FDF743F8C01BB042EAD37B
:1041000003236CE700973346012202212046FFF784
:10411000E3FD08B1032362E73A4631462046FFF744
:1041200026FE034618B120236365012357E7A268E2
:1041300032B903922268D168039192680392039A7C
:10414000626D002A3FF44BAF012348E7012346E7A5
:10415000012344E7032342E7032340E7022344E724
:104160000CCC00082DE9F04385B004460F461646F6
:1041700099460C9D8368F3B994F85030012B00F0F8
:104180001381012384F85030FCF7FAFF804694F83D
:104190005130DBB26268012B1BD0B2F5827F10D0A8
:1041A0000223012284F85120002284F8502018466E
:1041B00005B0BDE8F08340F23A317C4801F030FCB4
:1041C000DAE7A268002A40F0E780042B01D002233E
:1041D000E7E7002F00F0E280002E00F0E180B9F167
:1041E000000F00F0DF8094F85130DBB2012B2BD0B0
:1041F00000236365A663A4F83E90A4F83C9027636F
:10420000A4F83690A4F834902364636423681A6891
:1042100012F0400F03D11A6842F040021A60E368BE
:10422000B3F5006F14D063681BB1E38E9BB2012B12
:1042300007D1236817F8012B1A73E38E013B9BB259
:10424000E3864FF0010961E0052384F85130CFE7A0
:1042500063681BB1E38E9BB2012B07D1236837F84B
:10426000022BDA60E38E013B9BB2E3864FF001093B
:1042700013E0E38F9BB26BB123689A6812F0010FD1
:1042800008D0DB6826F8023BE38F013B9BB2E38753
:104290004FF00109B5F1FF3F1CD1E38E9BB21BB972
:1042A000E38F9BB2002B55D0B9F1000FE1D0E38E24
:1042B0009BB2002BDDD023689A6812F0020FD8D091
:1042C00037F8022BDA60E38E013B9BB2E3864FF0B6
:1042D0000009CEE7FCF754FFA0EB0800A842DCD3AE
:1042E00003235EE7E38F9BB26BB123689A6812F0F9
:1042F000010F08D0DB683370E38F013B9BB2E3878B
:1043000001364FF00109B5F1FF3F1BD1E38E9BB29F
:1043100013B9E38F9BB2EBB1B9F1000FE2D0E38E9A
:104320009BB2002BDED023689A6812F0020FD9D01E
:104330003A781A73E38E013B9BB2E38601374FF064
:104340000009CFE7FCF71CFFA0EB0800A842DDD373
:10435000032326E7CDF800802B46012202212046C8
:10436000FFF7BAFC08B103231BE742462946204663
:10437000FFF7FDFC034618B120236365012310E716
:10438000A268002A7FF40DAF03922268D1680391DE
:1043900092680392039A04E7022302E7012300E7ED
:1043A0000123FEE60123FCE6022300E70CCC000813
:1043B00090F85100704784B010B5044603A880E817
:1043C0000E00089B012B20D1A36B23F48033A36341
:1043D000E36823F4840323F04003E360E36823F4F9
:1043E0004013E3600F9B012B0AD0204600F080F8B9
:1043F000069B012B14D00020BDE8104004B070478C
:10440000E36843F48013E360EFE7E36843F04003BD
:10441000E360204600F06CF84FF48033A363E7E7D5
:10442000A36843F00603A360A36843F02003A360DE
:10443000E1E7836823F0010383600020704708B53B
:10444000C36823F0C043C360012909D019B9C36808
:1044500043F08043C3603220FCF798FE002008BD83
:10446000C36843F00053C360F5E70000890141F0E1
:104470002001016100230133054A934205D80269F6
:1044800012F0200FF7D1002070470320704700BFC3
:10449000400D03001023036100230133054A9342BA
:1044A00005D8026912F0100FF7D1002070470320E1
:1044B000704700BF400D030003329208002393426F
:1044C0000CD210B400F58054246841F8044B013339
:1044D0009342F7D308465DF8044B7047084670478F
:1044E0004269806910407047406900F001007047E0
:1044F000002301330C4A934211D80269002AF8DAEA
:10450000036943F00103036100230133064A934228
:1045100007D8026912F0010FF7D10020704703207D
:1045200070470320704700BF400D030084B038B5CA
:10453000044605A880E80E0025460023C4F8003E86
:10454000A36B23F48023A363A36B23F40023A3634F
:10455000A36B43F40013A363079B032B0ED0D4F883
:10456000003423F00403C4F8003410212046FFF780
:104570007DFF2046FFF78EFF002213E0B4F1A04F2D
:10458000EDD0D4F8003443F00403C4F80034ECE771
:1045900005EB42134FF0FF31C3F808150021C3F8B3
:1045A0000C150132069B9342F2D80121204600F0FF
:1045B00053F8C820FCF7EAFD0023A3614FF0FF3356
:1045C0006361B4F1A04F17D04FF40073636203F13D
:1045D0008073A3620D4BC4F80031089B1BB9A3691B
:1045E00043F01003A361A269094B1343A3610020A8
:1045F000BDE8384004B070478023636203F5C00310
:10460000A362044BC4F80031E7E700BF0003E000F9
:10461000080020A3E000400010B400F58064D0F84A
:10462000003423F00303C0F80034D0F8003401F064
:1046300003021343C0F80034012905D0022907D032
:1046400000205DF8044B70474BF680336360F7E75A
:1046500041F270736360F3E782B0D0F840340193A5
:10466000019B23F02E030193019B13F4805F01D182
:1046700001290CD0019B13F4805F05D021B9019B67
:1046800023F48053C0F84034002002B07047019BEF
:1046900043F48053C0F84034ECE780B483B000AFFB
:1046A00078607B6803F580635B699BB218460C37C2
:1046B000BD465DF8047B704780B485B000AF78607C
:1046C0000B46FB700023FB60FB785A017B681344A8
:1046D00003F5A0631B689B0C03F00303002B0BD0B6
:1046E000FB785A017B68134403F5A0631B689B0C9D
:1046F00003F00303022B5CD1FB785A017B6813445F
:1047000003F5A0631B68FA7851017A680A4402F540
:10471000A06243F0804313607B68DB6A03F47F038D
:10472000002B33D1FB785A017B68134403F5A06357
:104730001B68FA7851017A680A4402F5A06223F0F6
:1047400000431360FB785A017B68134403F5A063B0
:104750001B68FA7851017A680A4402F5A06243F0B6
:1047600000431360FB680133FB60FB68B3F57A7F9D
:104770001DD8FB785A017B68134403F5A0631B68BE
:1047800003F00043B3F1004FECD06FE0FB785A0127
:104790007B68134403F5A0631B68FA7851017A68BB
:1047A0000A4402F5A06243F0004313605EE000BFDC
:1047B0005CE0FB785A017B68134403F5A0631B6837
:1047C000FA7851017A680A4402F5A06243F0804306
:1047D00013607B6803F580631B699BB2002B33D1A8
:1047E000FB785A017B68134403F5A0631B68FA78D1
:1047F00051017A680A4402F5A06223F00043136075
:10480000FB785A017B68134403F5A0631B68FA78B0
:1048100051017A680A4402F5A06243F00043136034
:10482000FB680133FB60FB68B3F57A7F1DD8FB782A
:104830005A017B68134403F5A0631B6803F000432F
:10484000B3F1004FECD011E0FB785A017B681344C0
:1048500003F5A0631B68FA7851017A680A4402F5EF
:10486000A06243F00043136000E000BF002318463D
:104870001437BD465DF8047B704700002DE9F04F0A
:104880008DB0002401946A4B1A6B42F010021A6337
:104890001A6B02F010020192019A02941A6B42F014
:1048A00004021A631A6B02F004020292029A039441
:1048B0001A6B42F080021A631A6B02F080020392B4
:1048C000039A04941A6B42F001021A631A6B02F005
:1048D00001020492049A05941A6B42F002021A63D0
:1048E0001A6B02F002020592059A06941A6B42F0C6
:1048F00008021A631B6B03F008030693069B4D4FD7
:10490000224608213846FCF7FDFEDFF82CA10122E3
:1049100011465046FCF7F6FEDFF8209122464FF490
:1049200060414846FCF7EEFEDFF8148122464FF264
:1049300010014046FCF7E6FE04230793089409940F
:1049400007A93846FCF7EAFC0823079301250895D8
:1049500009940A9407A93846FCF7E0FC3223079330
:10496000DFF8E0B0CDF820B0099407A93846FCF78D
:10497000D5FC4BF6C173079303260896099407A943
:104980003846FCF7CBFC42F672330793089609943D
:1049900007A95046FCF7C2FC0795089509940A94AC
:1049A00007A95046FCF7BAFC0795CDF820B009944A
:1049B000A7F5805707A93846FCF7B0FC48F20E135C
:1049C00007930896099407A93846FCF7A7FC4FF40B
:1049D000DB7307930896099407A94846FCF79EFCE9
:1049E0004FF460430793089509940A9407A9484631
:1049F000FCF794FC40F6CF7307930896099407A937
:104A00004046FCF78BFC4FF210030793089509947E
:104A10000A9407A94046FCF781FC202307930894D9
:104A2000099407A94046FCF779FC0DB0BDE8F08F6A
:104A3000003802400010024000080240000402401A
:104A4000000C02400000121008B50C480C4B03602B
:104A50000C4B436000238360C3604FF480420261CB
:104A600043618361C3610362FDF7AAFC00B908BD1D
:104A70004221054800F0DEFDF9E700BFF00B002001
:104A800000540040A086010044CC00080268114B8D
:104A90009A4200D0704710B586B04FF4107301935E
:104AA0001223029301230393002404940423059307
:104AB0000DEB03010848FCF731FC0094074B1A6C1E
:104AC00042F400121A641B6C03F400130093009B61
:104AD00006B010BD005400400004024000380240FF
:104AE00008B50268074B9A4200D008BD064A136C0D
:104AF00023F4001313644FF410710448FCF768FDAD
:104B0000F3E700BF005400400038024000040240B8
:104B100008B50C480C4B03604FF40073436000234E
:104B20008360C3600361094A42618361C3610123F9
:104B30000362FDF7F9FF00B908BD4321044800F006
:104B400079FDF9E7440C00200038004000770100AF
:104B500054CC000808B50C480C4B03604FF40072AD
:104B6000426000238360C3600261094A426183613D
:104B7000C3610362FDF7D8FF00B908BD562105489F
:104B800000F058FDF9E700BF8C0C0020003C00400D
:104B90000077010054CC0008F0B589B003682E4AB4
:104BA000934204D02D4A934231D009B0F0BD002485
:104BB00001942B4B1A6C42F480421A641B6C03F470
:104BC00080430193019B04230393022504950594DC
:104BD000069406230793234F03A93846FCF79EFB50
:104BE000082303930495059406940526079603A9C4
:104BF0003846FCF793FB4FF4A053039304950594B8
:104C00000694079603A91848FCF788FBCDE7002413
:104C10000294134B1A6C42F400421A641B6C03F4A6
:104C200000430293029B10230393022604960594EB
:104C300006940625079503A90C48FCF76FFB4FF473
:104C4000A4530393049605940694079503A9054875
:104C5000FCF764FBA9E700BF00380040003C0040BF
:104C600000380240000802400004024000000240F8
:104C7000704730B583B0054600238DF8073001F04A
:104C8000C5F802AC04F8015D01222021204601F0A4
:104C9000FBF82D0A8DF8075001222321204601F050
:104CA000F3F803B030BD00B583B002AB03F8010DDB
:104CB00001222021184601F0E7F803B05DF804FB5B
:104CC00000B583B001F0A2F801220F210DF1070019
:104CD00001F0FCF89DF8070003B05DF804FB00B597
:104CE00083B0012224210DF1070001F0EFF89DF8B7
:104CF000073063F07F038DF80730012224210DF186
:104D0000070001F0C1F803B05DF804FB10B582B0F4
:104D1000044600238DF807308DF80630012230213B
:104D20000DF1070001F0D2F8012222210DF1060059
:104D300001F0CCF89DF80730E4B203F080038DF861
:104D400007309DF8063003F0DF031C438DF8064062
:104D5000012230210DF1070001F096F801222221F5
:104D60000DF1060001F090F802B010BD10B582B050
:104D70000446012222210DF1070001F0A7F854B1E9
:104D8000012C0ED19DF8073003F0F70343F0080320
:104D90008DF8073005E09DF8073063F07F038DF84C
:104DA0000730012222210DF1070001F06DF802B059
:104DB00010BD10B582B00446012222210DF107007A
:104DC00001F084F844B1012C0CD19DF8073023F098
:104DD00008038DF8073005E09DF8073003F07F03E6
:104DE0008DF80730012222210DF1070001F04CF867
:104DF00002B010BD10B582B00446012221210DF190
:104E0000070001F063F89DF8070000F0C0002043A0
:104E10008DF80700012221210DF1070001F034F87F
:104E200002B010BD10B582B00446012224210DF15C
:104E3000070001F04BF89DF8070000F0EF00204359
:104E40008DF80700012224210DF1070001F01CF864
:104E500002B010BD10B586B0044600230493ADF82F
:104E600014300293ADF80C3006A800F8113D012271
:104E7000232101F02BF80622282104A801F026F8AE
:104E80009DF8073013F0400F1FD000222FE0530091
:104E9000591C06A8014411F8080C06A90B4413F884
:104EA000081C01EB002123F8101C0132022AEEDD60
:104EB0009DF8073003F03003102B1BD0202B1CD0A3
:104EC000F3B19FED1B7A00232DE00022EEE75300A3
:104ED00006A9194411F8080C01330DF1180C6344AC
:104EE00013F8083C03EB002321F8103C0132022A9E
:104EF000EDDDDDE79FED0F7AE5E79FED0F7AE2E765
:104F00009FED0E7ADFE706AA02EB430232F9102C7E
:104F100007EE902A04EB8302F8EEE77A67EE877AD1
:104F2000C2ED007A0133022BEDDD06B010BD00BFEB
:104F30000000000000008C4100008C4200000C4189
:104F4000F0B585B00A9CB4F90A50002D0DDBB4F918
:104F50000860002E09DB0636B4F90470BE4204D89E
:104F60000835B4F90660B54201D905B0F0BDB4F911
:104F70000050B4F9026002EB420462000B9C029400
:104F8000B3FA83F35B090193082300930623034CD0
:104F900022443144284400F07AF8E6E750C400087F
:104FA00010815181704708B5438909334381022339
:104FB0000381037B03B908BD084600F04DF9FAE709
:104FC000F0B583B005460F4614461E4614E0B4F90A
:104FD0000800B4F90A10019600943B46FFF7B0FFB1
:104FE0000EE02B780A2B17D0B4F90A300833B4F945
:104FF000062093421ED801352A78DAB10A2AE6D172
:10500000238906331BB223810633B4F9042093426B
:10501000E7D96B780A2BE4D031462046FFF7C3FF6F
:1050200001F096FA6B781844437813F0080FDBD040
:105030000135D9E703B0F0BD002303E0C218002119
:1050400011770133B3F5FC7FF8DB704700281DDBD7
:1050500000291BDB532819DC2F2917DC30B4CC10B6
:10506000542505FB040001F00701012404FA01F1B5
:10507000C9B22AB103441A7F1143197730BC704773
:1050800003441A7F22EA01011977F7E770472DE9F7
:10509000F84F83468A4691461E460A9FDDF82C80CB
:1050A000002525E0E31D08E00C9BFFF7CFFF01344E
:1050B000BC421CDA2346002CF4DBDB1006FB035356
:1050C00019F80300614204F0070301F0070158BF1B
:1050D0004B4201229A40024005EB0B0004EB0A010F
:1050E000B8F1000FE0D0B2FA82F25209DCE70135E4
:1050F000B54201DA0024DBE7BDE8F88F20F0200399
:10510000072B01DD0120704710B582B00C4640F03E
:10511000200002A901F8010D4FF47A7301222068E2
:10512000FEF740FF002002B010BD30B583B030F074
:105130000D050CD10C4602A901F8010D4FF47A734C
:1051400001222068FEF72EFF284603B030BD02255D
:10515000FAE7032810D810B582B00C4640F00400DE
:1051600002A901F8010D4FF47A7301222068FEF7BD
:1051700019FF002002B010BD04207047072810D886
:1051800010B582B00C4640F0100002A901F8010DE4
:105190004FF47A7301222068FEF704FF002002B06A
:1051A00010BD0520704710F0800F10D110B582B0EF
:1051B0000C4640F0800002A901F8010D4FF47A730B
:1051C00001222068FEF7EEFE002002B010BD032091
:1051D0007047F0B583B004460D4617461E46036877
:1051E0001A68136843F040031360002281888068C6
:1051F000FCF788FA0022A1892069FCF783FA64236E
:105200000193019B013B0193002BFAD10122A1895B
:105210002069FCF777FA0022A18AA069FCF772FAEC
:1052200021460120FFF76AFF21463846FFF7BBFF02
:1052300021463046FFF78DFF21469DF82000FFF7FD
:105240009DFF21460020FFF759FF21462846FFF722
:105250006CFF002003B0F0BD10B582B00446002200
:1052600081888068FCF74EFA0022A18AA069FCF7C9
:1052700049FA02A9802301F8013D4FF47A73012213
:105280002068FEF78FFE02A9402301F8023D4FF48B
:105290007A7301222068FEF785FE0122A18AA069A7
:1052A000FCF730FA4FF47A734FF4FC7204F11C01EE
:1052B0002068FEF777FE02B010BD704710B50446B7
:1052C00000F028FEE2B22021322000F06FFE002222
:1052D0002321322000F06AFE10BD08B500F01AFE4E
:1052E0000F21322000F066FE08BD08B524213220CF
:1052F00000F060FE60F07F02D2B22421322000F084
:1053000055FE08BD10B504462121322000F052FEA2
:1053100000F00C0222432121322000F047FE10BD94
:1053200010B504462121322000F044FE00F0F702BF
:1053300022432121322000F039FE10BD30B587B064
:1053400004462321322000F035FE05468DF80C007E
:105350002421322000F02EFE2821322000F02AFEE7
:105360008DF804002921322000F024FE8DF805007C
:105370002A21322000F01EFE8DF806002B2132205B
:1053800000F018FE8DF807002C21322000F012FEEC
:105390008DF808002D21322000F00CFE8DF8090058
:1053A00015F0400F22D0002135E051004B1C06A81B
:1053B000034413F9143C9BB21B029BB2014411F944
:1053C000140C13FA80F321F8083C0132D2B2022AFD
:1053D000EBD99DF80C3003F03003202B1ED0302B7E
:1053E0001ED0102B1ED00121002328E00022EEE762
:1053F0004A0006AB981810F9143C9BB21B029BB2F2
:10540000013206AD2A4412F9142C13FA82F320F863
:10541000083C0131C9B20229EAD9DAE70421E3E7FD
:105420000C21E1E70221DFE706AA02EB430232F991
:10543000082C12FB01F224F813200133DBB2022BFB
:10544000F2D907B030BD10B504462121322000F05A
:10545000B1FD00F0FB0222432121322000F0A6FD25
:1054600010BD10B504462221322000F0A3FD40EA11
:105470000402D2B22221322000F098FD10BD10B5F6
:1054800004463821322000F095FD40EA0402D2B2F1
:105490003821322000F08AFD0A223A21322000F021
:1054A00085FD05223B21322000F080FD05223C21B4
:1054B000322000F07BFD32223D21104600F076FDC7
:1054C00010BD08B500F048FD8020FFF7CAFF04209A
:1054D000FFF7B9FF1020FFF7D2FF08BD2DE9F84311
:1054E0000446B0F9000000284ADB0011FAF7DAFFA1
:1054F0000022264BFBF76AF980468946B4F9020080
:1055000000283FDB0011FAF7CDFF00221F4BFBF70D
:105510005DF906460F46B4F90400002834DB00119B
:10552000FAF7C0FF0022194BFBF750F904460D466D
:1055300042464B4640464946FBF71EF880468946A0
:1055400032463B4630463946FBF716F802460B46D4
:1055500040464946FAF75AFE06460F4622462B4673
:1055600020462946FBF708F802460B4630463946E6
:10557000FAF74CFE41EC100B00F08AFEBDE8F88310
:105580000F30B2E70F30BDE70F30C8E700408F4063
:105590002DE9F8432DED028B0446D0ED007A9FED06
:1055A000238AC7EE887A17EE900AFAF78DFF8046B5
:1055B0008946D4ED017AC7EE887A17EE900AFAF799
:1055C00083FF06460F46A068FAF77EFF0022184BBD
:1055D000FBF7FCF804460D4642464B46404649461A
:1055E000FAF7CAFF8046894632463B46304639467E
:1055F000FAF7C2FF02460B4640464946FAF706FE56
:1056000006460F4622462B4620462946FAF7B4FFA7
:1056100002460B4630463946FAF7F8FD41EC100BCE
:1056200000F036FEBDEC028BBDE8F88300007A4442
:1056300000408F40FEE7000000B59BB000210191C3
:10564000334B1A6C42F080521A641B6C03F0805387
:105650000193019B02912F4B1A6842F440421A6059
:105660001B6803F440430293029B01230E934FF403
:1056700080330F93022314934FF480031593042374
:105680001693C02217921893082319930EA8FDF7BA
:10569000A5FD70BB0F23099302230A9300230B93EC
:1056A0004FF4A0520C920D93032109A8FEF752F873
:1056B00018BB01230393C8230593052304930223F6
:1056C000069303A8FEF766F9E0B9FEF74DF9124B11
:1056D000A3FB00308009FBF7E7FD0420FBF7FAFD90
:1056E000002211464FF0FF30FBF782FD1BB05DF842
:1056F00004FBF4210948FFF79DFF40F20111074820
:10570000FFF798FF40F209110448FFF793FF00BF2D
:105710000038024000700040D34D621064CC000895
:105720002DE9F04F2DED028BF3B0FBF703FDFFF7F2
:1057300083FFFFF7A3F8FFF787F9FFF7E9F9FFF712
:1057400009FA00F06FF900F01FFD00F08FF900F08A
:1057500035FC18B1A54800F069FFFEE700F062FCD7
:1057600018B1A34800F062FFFEE7A24CA24B2360F1
:105770004FF40043A38003F1804303F5C233A360D9
:105780004FF40052A28123614FF48042A282A361B0
:105790009A4D04F5057328686968AA6807C3AA8941
:1057A0001A8003230093022340220C212046FFF796
:1057B00010FD70A800F01CFC6DA800F055FC70A84E
:1057C000FFF78CFE8DED040B6DA8FFF7E1FE5BEC9F
:1057D00010ABDAE0874C2046FFF72EFC234604F599
:1057E000057200210846FFF7DBFBBDF9C001002868
:1057F000C0F2F6800011FAF755FE04460D46BDF9D9
:10580000C2010028C0F2EE800011FAF74BFE80467C
:105810008946BDF9C4010028C0F2E6800011FAF7FC
:1058200041FE06460F460022754B20462946FAF7F0
:10583000CDFF04460D460022714B30463946FAF73B
:10584000C5FFCDE9020100226D4B40464946FAF7FB
:10585000BDFFCDE9000122462B466A4921A800F090
:10586000F9FEDFF8908108F5057943464A460121A3
:1058700021A8FFF7A5FB4046FFF7DEFB43464A465B
:1058800000210846FFF78CFB40F2DC50FBF77EFC62
:10589000DDE906235C490BA800F0DCFE43464A46DE
:1058A00001210BA8FFF78CFBDDE90423574916A85B
:1058B00000F0D0FE43464A46012116A8FFF780FBC0
:1058C00040F2DC50FBF762FC4046FFF7B5FB434675
:1058D0004A4600210846FFF763FBDFED4D7A9DED58
:1058E0006D7AC7EE278A9DED6E7A87EE278A6F98CC
:1058F000FAF7EAFD06460F4618EE900AFAF7E4FDBD
:1059000004460D4600223E4B30463946FAF75EFF0C
:10591000CDE9020118EE100AFAF7D6FDCDE9000133
:1059200022462B463B4947A800F094FE43464A4690
:10593000012147A8FFF744FB4046FFF77DFB40F2FB
:10594000DC50FBF723FC43464A4600210846FFF79C
:1059500027FBDDE9082330490BA800F07BFE434616
:105960004A4601210BA8FFF72BFB52465B462B4909
:1059700016A800F06FFE43464A46012116A8FFF71D
:105980001FFB40F2DC50FBF701FC70A800F030FB7D
:105990006DA800F069FB70A8FFF7A0FD55EC104B57
:1059A0008DED060B10EE102A2B46DDE90401FBF706
:1059B00055F808B1CDE904456DA8FFF7E9FD55ECB0
:1059C000104B8DED080B10EE102A2B465046594611
:1059D000FBF744F800283FF4FDAEA246AB46F9E6DB
:1059E0000F3007E70F300FE70F3017E774CC0008D0
:1059F00094CC0008D40C0020F80E002050CA0008F7
:105A000000408F40B0CC0008C0CC0008D8CC0008C3
:105A100000007A44F4CC000804CD000818CD00083A
:105A20007047000008B50E480E4B03604FF48273B8
:105A3000436000238360C360036143614FF40072DD
:105A40008261C3610362436283620A23C362FEF719
:105A5000A3F900B908BD46210348FFF7EBFDF9E7BC
:105A6000500F00200030014030CD000808B50F482D
:105A70000F4B03604FF48273436000238360C36065
:105A8000036143614FF4007282612022C2610362AC
:105A9000436283620A23C362FEF77EF900B908BD40
:105AA0005C210448FFF7C6FDF9E700BFF80E0020AF
:105AB0000050014030CD0008F0B589B00368234A9A
:105AC000934204D0224A93421BD009B0F0BD00217A
:105AD0000191204B5A6C42F480525A645B6C03F47F
:105AE00080530193019BE0230393022304930591C8
:105AF000032306930523079303A91748FBF70EFC1E
